{
  "_format": "hh-sol-artifact-1",
  "contractName": "ERC20OB",
  "sourceName": "contracts/preset/ERC20OB.sol",
  "abi": [
    {
      "inputs": [
        {
          "internalType": "string",
          "name": "name",
          "type": "string"
        },
        {
          "internalType": "string",
          "name": "symbol",
          "type": "string"
        }
      ],
      "stateMutability": "nonpayable",
      "type": "constructor"
    },
    {
      "inputs": [
        {
          "internalType": "address",
          "name": "receiver",
          "type": "address"
        }
      ],
      "name": "ERC1363EOAReceiver",
      "type": "error"
    },
    {
      "inputs": [
        {
          "internalType": "address",
          "name": "spender",
          "type": "address"
        }
      ],
      "name": "ERC1363EOASpender",
      "type": "error"
    },
    {
      "inputs": [
        {
          "internalType": "address",
          "name": "receiver",
          "type": "address"
        }
      ],
      "name": "ERC1363InvalidReceiver",
      "type": "error"
    },
    {
      "inputs": [
        {
          "internalType": "address",
          "name": "spender",
          "type": "address"
        }
      ],
      "name": "ERC1363InvalidSpender",
      "type": "error"
    },
    {
      "inputs": [
        {
          "internalType": "address",
          "name": "spender",
          "type": "address"
        },
        {
          "internalType": "uint256",
          "name": "allowance",
          "type": "uint256"
        },
        {
          "internalType": "uint256",
          "name": "needed",
          "type": "uint256"
        }
      ],
      "name": "ERC20InsufficientAllowance",
      "type": "error"
    },
    {
      "inputs": [
        {
          "internalType": "address",
          "name": "sender",
          "type": "address"
        },
        {
          "internalType": "uint256",
          "name": "balance",
          "type": "uint256"
        },
        {
          "internalType": "uint256",
          "name": "needed",
          "type": "uint256"
        }
      ],
      "name": "ERC20InsufficientBalance",
      "type": "error"
    },
    {
      "inputs": [
        {
          "internalType": "address",
          "name": "approver",
          "type": "address"
        }
      ],
      "name": "ERC20InvalidApprover",
      "type": "error"
    },
    {
      "inputs": [
        {
          "internalType": "address",
          "name": "receiver",
          "type": "address"
        }
      ],
      "name": "ERC20InvalidReceiver",
      "type": "error"
    },
    {
      "inputs": [
        {
          "internalType": "address",
          "name": "sender",
          "type": "address"
        }
      ],
      "name": "ERC20InvalidSender",
      "type": "error"
    },
    {
      "inputs": [
        {
          "internalType": "address",
          "name": "spender",
          "type": "address"
        }
      ],
      "name": "ERC20InvalidSpender",
      "type": "error"
    },
    {
      "inputs": [
        {
          "internalType": "address",
          "name": "owner",
          "type": "address"
        }
      ],
      "name": "OwnableInvalidOwner",
      "type": "error"
    },
    {
      "inputs": [
        {
          "internalType": "address",
          "name": "account",
          "type": "address"
        }
      ],
      "name": "OwnableUnauthorizedAccount",
      "type": "error"
    },
    {
      "anonymous": false,
      "inputs": [
        {
          "indexed": true,
          "internalType": "address",
          "name": "owner",
          "type": "address"
        },
        {
          "indexed": true,
          "internalType": "address",
          "name": "spender",
          "type": "address"
        },
        {
          "indexed": false,
          "internalType": "uint256",
          "name": "value",
          "type": "uint256"
        }
      ],
      "name": "Approval",
      "type": "event"
    },
    {
      "anonymous": false,
      "inputs": [
        {
          "indexed": true,
          "internalType": "address",
          "name": "previousOwner",
          "type": "address"
        },
        {
          "indexed": true,
          "internalType": "address",
          "name": "newOwner",
          "type": "address"
        }
      ],
      "name": "OwnershipTransferred",
      "type": "event"
    },
    {
      "anonymous": false,
      "inputs": [
        {
          "indexed": true,
          "internalType": "address",
          "name": "from",
          "type": "address"
        },
        {
          "indexed": true,
          "internalType": "address",
          "name": "to",
          "type": "address"
        },
        {
          "indexed": false,
          "internalType": "uint256",
          "name": "value",
          "type": "uint256"
        }
      ],
      "name": "Transfer",
      "type": "event"
    },
    {
      "inputs": [
        {
          "internalType": "address",
          "name": "owner",
          "type": "address"
        },
        {
          "internalType": "address",
          "name": "spender",
          "type": "address"
        }
      ],
      "name": "allowance",
      "outputs": [
        {
          "internalType": "uint256",
          "name": "",
          "type": "uint256"
        }
      ],
      "stateMutability": "view",
      "type": "function"
    },
    {
      "inputs": [
        {
          "internalType": "address",
          "name": "spender",
          "type": "address"
        },
        {
          "internalType": "uint256",
          "name": "value",
          "type": "uint256"
        }
      ],
      "name": "approve",
      "outputs": [
        {
          "internalType": "bool",
          "name": "",
          "type": "bool"
        }
      ],
      "stateMutability": "nonpayable",
      "type": "function"
    },
    {
      "inputs": [
        {
          "internalType": "address",
          "name": "spender",
          "type": "address"
        },
        {
          "internalType": "uint256",
          "name": "value",
          "type": "uint256"
        }
      ],
      "name": "approveAndCall",
      "outputs": [
        {
          "internalType": "bool",
          "name": "",
          "type": "bool"
        }
      ],
      "stateMutability": "nonpayable",
      "type": "function"
    },
    {
      "inputs": [
        {
          "internalType": "address",
          "name": "spender",
          "type": "address"
        },
        {
          "internalType": "uint256",
          "name": "value",
          "type": "uint256"
        },
        {
          "internalType": "bytes",
          "name": "data",
          "type": "bytes"
        }
      ],
      "name": "approveAndCall",
      "outputs": [
        {
          "internalType": "bool",
          "name": "",
          "type": "bool"
        }
      ],
      "stateMutability": "nonpayable",
      "type": "function"
    },
    {
      "inputs": [
        {
          "internalType": "address",
          "name": "account",
          "type": "address"
        }
      ],
      "name": "balanceOf",
      "outputs": [
        {
          "internalType": "uint256",
          "name": "",
          "type": "uint256"
        }
      ],
      "stateMutability": "view",
      "type": "function"
    },
    {
      "inputs": [
        {
          "internalType": "uint256",
          "name": "value",
          "type": "uint256"
        }
      ],
      "name": "burn",
      "outputs": [],
      "stateMutability": "nonpayable",
      "type": "function"
    },
    {
      "inputs": [
        {
          "internalType": "address",
          "name": "account",
          "type": "address"
        },
        {
          "internalType": "uint256",
          "name": "value",
          "type": "uint256"
        }
      ],
      "name": "burnFrom",
      "outputs": [],
      "stateMutability": "nonpayable",
      "type": "function"
    },
    {
      "inputs": [],
      "name": "decimals",
      "outputs": [
        {
          "internalType": "uint8",
          "name": "",
          "type": "uint8"
        }
      ],
      "stateMutability": "view",
      "type": "function"
    },
    {
      "inputs": [
        {
          "internalType": "address",
          "name": "to",
          "type": "address"
        },
        {
          "internalType": "uint256",
          "name": "amount",
          "type": "uint256"
        }
      ],
      "name": "mint",
      "outputs": [],
      "stateMutability": "nonpayable",
      "type": "function"
    },
    {
      "inputs": [],
      "name": "name",
      "outputs": [
        {
          "internalType": "string",
          "name": "",
          "type": "string"
        }
      ],
      "stateMutability": "view",
      "type": "function"
    },
    {
      "inputs": [],
      "name": "owner",
      "outputs": [
        {
          "internalType": "address",
          "name": "",
          "type": "address"
        }
      ],
      "stateMutability": "view",
      "type": "function"
    },
    {
      "inputs": [],
      "name": "renounceOwnership",
      "outputs": [],
      "stateMutability": "nonpayable",
      "type": "function"
    },
    {
      "inputs": [
        {
          "internalType": "bytes4",
          "name": "interfaceId",
          "type": "bytes4"
        }
      ],
      "name": "supportsInterface",
      "outputs": [
        {
          "internalType": "bool",
          "name": "",
          "type": "bool"
        }
      ],
      "stateMutability": "view",
      "type": "function"
    },
    {
      "inputs": [],
      "name": "symbol",
      "outputs": [
        {
          "internalType": "string",
          "name": "",
          "type": "string"
        }
      ],
      "stateMutability": "view",
      "type": "function"
    },
    {
      "inputs": [],
      "name": "totalSupply",
      "outputs": [
        {
          "internalType": "uint256",
          "name": "",
          "type": "uint256"
        }
      ],
      "stateMutability": "view",
      "type": "function"
    },
    {
      "inputs": [
        {
          "internalType": "address",
          "name": "to",
          "type": "address"
        },
        {
          "internalType": "uint256",
          "name": "value",
          "type": "uint256"
        }
      ],
      "name": "transfer",
      "outputs": [
        {
          "internalType": "bool",
          "name": "",
          "type": "bool"
        }
      ],
      "stateMutability": "nonpayable",
      "type": "function"
    },
    {
      "inputs": [
        {
          "internalType": "address",
          "name": "to",
          "type": "address"
        },
        {
          "internalType": "uint256",
          "name": "value",
          "type": "uint256"
        }
      ],
      "name": "transferAndCall",
      "outputs": [
        {
          "internalType": "bool",
          "name": "",
          "type": "bool"
        }
      ],
      "stateMutability": "nonpayable",
      "type": "function"
    },
    {
      "inputs": [
        {
          "internalType": "address",
          "name": "to",
          "type": "address"
        },
        {
          "internalType": "uint256",
          "name": "value",
          "type": "uint256"
        },
        {
          "internalType": "bytes",
          "name": "data",
          "type": "bytes"
        }
      ],
      "name": "transferAndCall",
      "outputs": [
        {
          "internalType": "bool",
          "name": "",
          "type": "bool"
        }
      ],
      "stateMutability": "nonpayable",
      "type": "function"
    },
    {
      "inputs": [
        {
          "internalType": "address",
          "name": "from",
          "type": "address"
        },
        {
          "internalType": "address",
          "name": "to",
          "type": "address"
        },
        {
          "internalType": "uint256",
          "name": "value",
          "type": "uint256"
        }
      ],
      "name": "transferFrom",
      "outputs": [
        {
          "internalType": "bool",
          "name": "",
          "type": "bool"
        }
      ],
      "stateMutability": "nonpayable",
      "type": "function"
    },
    {
      "inputs": [
        {
          "internalType": "address",
          "name": "from",
          "type": "address"
        },
        {
          "internalType": "address",
          "name": "to",
          "type": "address"
        },
        {
          "internalType": "uint256",
          "name": "value",
          "type": "uint256"
        },
        {
          "internalType": "bytes",
          "name": "data",
          "type": "bytes"
        }
      ],
      "name": "transferFromAndCall",
      "outputs": [
        {
          "internalType": "bool",
          "name": "",
          "type": "bool"
        }
      ],
      "stateMutability": "nonpayable",
      "type": "function"
    },
    {
      "inputs": [
        {
          "internalType": "address",
          "name": "from",
          "type": "address"
        },
        {
          "internalType": "address",
          "name": "to",
          "type": "address"
        },
        {
          "internalType": "uint256",
          "name": "value",
          "type": "uint256"
        }
      ],
      "name": "transferFromAndCall",
      "outputs": [
        {
          "internalType": "bool",
          "name": "",
          "type": "bool"
        }
      ],
      "stateMutability": "nonpayable",
      "type": "function"
    },
    {
      "inputs": [
        {
          "internalType": "address",
          "name": "newOwner",
          "type": "address"
        }
      ],
      "name": "transferOwnership",
      "outputs": [],
      "stateMutability": "nonpayable",
      "type": "function"
    }
  ],
  "bytecode": "0x60806040523480156200001157600080fd5b5060405162001521380380620015218339810160408190526200003491620001a6565b818133806200005d57604051631e4fbdf760e01b81526000600482015260240160405180910390fd5b620000688162000091565b5060046200007783826200029f565b5060056200008682826200029f565b50505050506200036b565b600080546001600160a01b038381166001600160a01b0319831681178455604051919092169283917f8be0079c531659141344cd1fd0a4f28419497f9722a3daafe3b4186f6b6457e09190a35050565b634e487b7160e01b600052604160045260246000fd5b600082601f8301126200010957600080fd5b81516001600160401b0380821115620001265762000126620000e1565b604051601f8301601f19908116603f01168101908282118183101715620001515762000151620000e1565b816040528381526020925086838588010111156200016e57600080fd5b600091505b8382101562000192578582018301518183018401529082019062000173565b600093810190920192909252949350505050565b60008060408385031215620001ba57600080fd5b82516001600160401b0380821115620001d257600080fd5b620001e086838701620000f7565b93506020850151915080821115620001f757600080fd5b506200020685828601620000f7565b9150509250929050565b600181811c908216806200022557607f821691505b6020821081036200024657634e487b7160e01b600052602260045260246000fd5b50919050565b601f8211156200029a57600081815260208120601f850160051c81016020861015620002755750805b601f850160051c820191505b81811015620002965782815560010162000281565b5050505b505050565b81516001600160401b03811115620002bb57620002bb620000e1565b620002d381620002cc845462000210565b846200024c565b602080601f8311600181146200030b5760008415620002f25750858301515b600019600386901b1c1916600185901b17855562000296565b600085815260208120601f198616915b828110156200033c578886015182559484019460019091019084016200031b565b50858210156200035b5787850151600019600388901b60f8161c191681555b5050505050600190811b01905550565b6111a6806200037b6000396000f3fe608060405234801561001057600080fd5b50600436106101825760003560e01c806370a08231116100d8578063a9059cbb1161008c578063d8fbe99411610066578063d8fbe9941461030c578063dd62ed3e1461031f578063f2fde38b1461035857600080fd5b8063a9059cbb146102d3578063c1d34b89146102e6578063cae9ca51146102f957600080fd5b806379cc6790116100bd57806379cc67901461029d5780638da5cb5b146102b057806395d89b41146102cb57600080fd5b806370a082311461026c578063715018a61461029557600080fd5b806323b872dd1161013a5780634000aea0116101145780634000aea01461023157806340c10f191461024457806342966c681461025957600080fd5b806323b872dd146101fc578063313ce5671461020f5780633177029f1461021e57600080fd5b8063095ea7b31161016b578063095ea7b3146101c45780631296ee62146101d757806318160ddd146101ea57600080fd5b806301ffc9a71461018757806306fdde03146101af575b600080fd5b61019a610195366004610dca565b61036b565b60405190151581526020015b60405180910390f35b6101b76103e3565b6040516101a69190610e2d565b61019a6101d2366004610e5c565b610475565b61019a6101e5366004610e5c565b61048d565b6003545b6040519081526020016101a6565b61019a61020a366004610e86565b6104b0565b604051601281526020016101a6565b61019a61022c366004610e5c565b6104d4565b61019a61023f366004610f65565b6104f0565b610257610252366004610e5c565b610509565b005b610257610267366004610fbc565b61051f565b6101ee61027a366004610fd5565b6001600160a01b031660009081526001602052604090205490565b61025761052c565b6102576102ab366004610e5c565b610540565b6000546040516001600160a01b0390911681526020016101a6565b6101b7610555565b61019a6102e1366004610e5c565b610564565b61019a6102f4366004610ff0565b610572565b61019a610307366004610f65565b61058c565b61019a61031a366004610e86565b6105a4565b6101ee61032d366004611058565b6001600160a01b03918216600090815260026020908152604080832093909416825291909152205490565b610257610366366004610fd5565b6105c9565b60006001600160e01b031982167f36372b070000000000000000000000000000000000000000000000000000000014806103ce57506001600160e01b031982167fa219a02500000000000000000000000000000000000000000000000000000000145b806103dd57506103dd82610622565b92915050565b6060600480546103f29061108b565b80601f016020809104026020016040519081016040528092919081815260200182805461041e9061108b565b801561046b5780601f106104405761010080835404028352916020019161046b565b820191906000526020600020905b81548152906001019060200180831161044e57829003601f168201915b5050505050905090565b600033610483818585610689565b5060019392505050565b60006104a98383604051806020016040528060008152506104f0565b9392505050565b6000336104be85828561069b565b6104c9858585610732565b506001949350505050565b60006104a983836040518060200160405280600081525061058c565b60006104fc8484610564565b5061048333858585610791565b6105116108f9565b61051b828261093f565b5050565b6105293382610975565b50565b6105346108f9565b61053e60006109ab565b565b61054b82338361069b565b61051b8282610975565b6060600580546103f29061108b565b600033610483818585610732565b600061057f8585856104b0565b506104c985858585610791565b60006105988484610475565b50610483848484610a13565b60006105c184848460405180602001604052806000815250610572565b949350505050565b6105d16108f9565b6001600160a01b038116610619576040517f1e4fbdf7000000000000000000000000000000000000000000000000000000008152600060048201526024015b60405180910390fd5b610529816109ab565b60006001600160e01b031982167fb0202a110000000000000000000000000000000000000000000000000000000014806103dd57507f01ffc9a7000000000000000000000000000000000000000000000000000000006001600160e01b03198316146103dd565b6106968383836001610b6a565b505050565b6001600160a01b03838116600090815260026020908152604080832093861683529290522054600019811461072c578181101561071d576040517ffb8f41b20000000000000000000000000000000000000000000000000000000081526001600160a01b03841660048201526024810182905260448101839052606401610610565b61072c84848484036000610b6a565b50505050565b6001600160a01b03831661075c57604051634b637e8f60e11b815260006004820152602401610610565b6001600160a01b0382166107865760405163ec442f0560e01b815260006004820152602401610610565b610696838383610c71565b826001600160a01b03163b6000036107e0576040517f14b41af40000000000000000000000000000000000000000000000000000000081526001600160a01b0384166004820152602401610610565b604051632229f29760e21b81526001600160a01b038416906388a7ca5c906108129033908890879087906004016110c5565b6020604051808303816000875af192505050801561084d575060408051601f3d908101601f1916820190925261084a91810190611101565b60015b6108b6573d80801561087b576040519150601f19603f3d011682016040523d82523d6000602084013e610880565b606091505b5080516000036108ae576040516322a5b36760e21b81526001600160a01b0385166004820152602401610610565b805181602001fd5b6001600160e01b03198116632229f29760e21b146108f2576040516322a5b36760e21b81526001600160a01b0385166004820152602401610610565b5050505050565b6000546001600160a01b0316331461053e576040517f118cdaa7000000000000000000000000000000000000000000000000000000008152336004820152602401610610565b6001600160a01b0382166109695760405163ec442f0560e01b815260006004820152602401610610565b61051b60008383610c71565b6001600160a01b03821661099f57604051634b637e8f60e11b815260006004820152602401610610565b61051b82600083610c71565b600080546001600160a01b038381167fffffffffffffffffffffffff0000000000000000000000000000000000000000831681178455604051919092169283917f8be0079c531659141344cd1fd0a4f28419497f9722a3daafe3b4186f6b6457e09190a35050565b826001600160a01b03163b600003610a62576040517f0778150c0000000000000000000000000000000000000000000000000000000081526001600160a01b0384166004820152602401610610565b6040516307b04a2d60e41b81526001600160a01b03841690637b04a2d090610a929033908690869060040161111e565b6020604051808303816000875af1925050508015610acd575060408051601f3d908101601f19168201909252610aca91810190611101565b60015b610b2e573d808015610afb576040519150601f19603f3d011682016040523d82523d6000602084013e610b00565b606091505b5080516000036108ae5760405163deb6d3ed60e01b81526001600160a01b0385166004820152602401610610565b6001600160e01b031981166307b04a2d60e41b1461072c5760405163deb6d3ed60e01b81526001600160a01b0385166004820152602401610610565b6001600160a01b038416610bad576040517fe602df0500000000000000000000000000000000000000000000000000000000815260006004820152602401610610565b6001600160a01b038316610bf0576040517f94280d6200000000000000000000000000000000000000000000000000000000815260006004820152602401610610565b6001600160a01b038085166000908152600260209081526040808320938716835292905220829055801561072c57826001600160a01b0316846001600160a01b03167f8c5be1e5ebec7d5bd14f71427d1e84f3dd0314c0f7b2291e5b200ac8c7c3b92584604051610c6391815260200190565b60405180910390a350505050565b6001600160a01b038316610c9c578060036000828254610c91919061114f565b90915550610d279050565b6001600160a01b03831660009081526001602052604090205481811015610d08576040517fe450d38c0000000000000000000000000000000000000000000000000000000081526001600160a01b03851660048201526024810182905260448101839052606401610610565b6001600160a01b03841660009081526001602052604090209082900390555b6001600160a01b038216610d4357600380548290039055610d62565b6001600160a01b03821660009081526001602052604090208054820190555b816001600160a01b0316836001600160a01b03167fddf252ad1be2c89b69c2b068fc378daa952ba7f163c4a11628f55a4df523b3ef83604051610da791815260200190565b60405180910390a3505050565b6001600160e01b03198116811461052957600080fd5b600060208284031215610ddc57600080fd5b81356104a981610db4565b6000815180845260005b81811015610e0d57602081850181015186830182015201610df1565b506000602082860101526020601f19601f83011685010191505092915050565b6020815260006104a96020830184610de7565b80356001600160a01b0381168114610e5757600080fd5b919050565b60008060408385031215610e6f57600080fd5b610e7883610e40565b946020939093013593505050565b600080600060608486031215610e9b57600080fd5b610ea484610e40565b9250610eb260208501610e40565b9150604084013590509250925092565b634e487b7160e01b600052604160045260246000fd5b600082601f830112610ee957600080fd5b813567ffffffffffffffff80821115610f0457610f04610ec2565b604051601f8301601f19908116603f01168101908282118183101715610f2c57610f2c610ec2565b81604052838152866020858801011115610f4557600080fd5b836020870160208301376000602085830101528094505050505092915050565b600080600060608486031215610f7a57600080fd5b610f8384610e40565b925060208401359150604084013567ffffffffffffffff811115610fa657600080fd5b610fb286828701610ed8565b9150509250925092565b600060208284031215610fce57600080fd5b5035919050565b600060208284031215610fe757600080fd5b6104a982610e40565b6000806000806080858703121561100657600080fd5b61100f85610e40565b935061101d60208601610e40565b925060408501359150606085013567ffffffffffffffff81111561104057600080fd5b61104c87828801610ed8565b91505092959194509250565b6000806040838503121561106b57600080fd5b61107483610e40565b915061108260208401610e40565b90509250929050565b600181811c9082168061109f57607f821691505b6020821081036110bf57634e487b7160e01b600052602260045260246000fd5b50919050565b60006001600160a01b038087168352808616602084015250836040830152608060608301526110f76080830184610de7565b9695505050505050565b60006020828403121561111357600080fd5b81516104a981610db4565b6001600160a01b03841681528260208201526060604082015260006111466060830184610de7565b95945050505050565b808201808211156103dd57634e487b7160e01b600052601160045260246000fdfea2646970667358221220d6b381cea7fec363e3c392e308852258cc70d6fd1338d98389428e01b23c969964736f6c63430008140033",
  "linkReferences": {},
  "deployedLinkReferences": {}
}